{
  "_format": "hh-sol-artifact-1",
  "contractName": "SimplePublicSuffixList",
  "sourceName": "contracts/dnsregistrar/SimplePublicSuffixList.sol",
  "abi": [
    {
      "anonymous": false,
      "inputs": [
        {
          "indexed": true,
          "internalType": "address",
          "name": "previousOwner",
          "type": "address"
        },
        {
          "indexed": true,
          "internalType": "address",
          "name": "newOwner",
          "type": "address"
        }
      ],
      "name": "OwnershipTransferred",
      "type": "event"
    },
    {
      "inputs": [
        {
          "internalType": "bytes[]",
          "name": "names",
          "type": "bytes[]"
        }
      ],
      "name": "addPublicSuffixes",
      "outputs": [],
      "stateMutability": "nonpayable",
      "type": "function"
    },
    {
      "inputs": [
        {
          "internalType": "bytes",
          "name": "name",
          "type": "bytes"
        }
      ],
      "name": "isPublicSuffix",
      "outputs": [
        {
          "internalType": "bool",
          "name": "",
          "type": "bool"
        }
      ],
      "stateMutability": "view",
      "type": "function"
    },
    {
      "inputs": [],
      "name": "owner",
      "outputs": [
        {
          "internalType": "address",
          "name": "",
          "type": "address"
        }
      ],
      "stateMutability": "view",
      "type": "function"
    },
    {
      "inputs": [],
      "name": "renounceOwnership",
      "outputs": [],
      "stateMutability": "nonpayable",
      "type": "function"
    },
    {
      "inputs": [
        {
          "internalType": "address",
          "name": "newOwner",
          "type": "address"
        }
      ],
      "name": "transferOwnership",
      "outputs": [],
      "stateMutability": "nonpayable",
      "type": "function"
    }
  ],
  "bytecode": "0x608060405234801561001057600080fd5b5061001a3361001f565b61006f565b600080546001600160a01b038381166001600160a01b0319831681178455604051919092169283917f8be0079c531659141344cd1fd0a4f28419497f9722a3daafe3b4186f6b6457e09190a35050565b6107d28061007e6000396000f3fe608060405234801561001057600080fd5b50600436106100675760003560e01c8063715018a611610050578063715018a6146100a95780638da5cb5b146100b1578063f2fde38b146100d957600080fd5b80634f89059e1461006c5780636329cdfc14610094575b600080fd5b61007f61007a36600461060a565b6100ec565b60405190151581526020015b60405180910390f35b6100a76100a2366004610548565b61011b565b005b6100a7610252565b60005460405173ffffffffffffffffffffffffffffffffffffffff909116815260200161008b565b6100a76100e736600461050d565b6102df565b600060018383604051610100929190610677565b9081526040519081900360200190205460ff16905092915050565b60005473ffffffffffffffffffffffffffffffffffffffff1633146101a1576040517f08c379a000000000000000000000000000000000000000000000000000000000815260206004820181905260248201527f4f776e61626c653a2063616c6c6572206973206e6f7420746865206f776e657260448201526064015b60405180910390fd5b60005b815181101561024e576001808383815181106101e9577f4e487b7100000000000000000000000000000000000000000000000000000000600052603260045260246000fd5b60200260200101516040516101fe9190610687565b90815260405190819003602001902080549115157fffffffffffffffffffffffffffffffffffffffffffffffffffffffffffffff00909216919091179055806102468161070f565b9150506101a4565b5050565b60005473ffffffffffffffffffffffffffffffffffffffff1633146102d3576040517f08c379a000000000000000000000000000000000000000000000000000000000815260206004820181905260248201527f4f776e61626c653a2063616c6c6572206973206e6f7420746865206f776e65726044820152606401610198565b6102dd600061040f565b565b60005473ffffffffffffffffffffffffffffffffffffffff163314610360576040517f08c379a000000000000000000000000000000000000000000000000000000000815260206004820181905260248201527f4f776e61626c653a2063616c6c6572206973206e6f7420746865206f776e65726044820152606401610198565b73ffffffffffffffffffffffffffffffffffffffff8116610403576040517f08c379a000000000000000000000000000000000000000000000000000000000815260206004820152602660248201527f4f776e61626c653a206e6577206f776e657220697320746865207a65726f206160448201527f64647265737300000000000000000000000000000000000000000000000000006064820152608401610198565b61040c8161040f565b50565b6000805473ffffffffffffffffffffffffffffffffffffffff8381167fffffffffffffffffffffffff0000000000000000000000000000000000000000831681178455604051919092169283917f8be0079c531659141344cd1fd0a4f28419497f9722a3daafe3b4186f6b6457e09190a35050565b600082601f830112610494578081fd5b813567ffffffffffffffff8111156104ae576104ae61076d565b6104df60207fffffffffffffffffffffffffffffffffffffffffffffffffffffffffffffffe0601f840116016106c0565b8181528460208386010111156104f3578283fd5b816020850160208301379081016020019190915292915050565b60006020828403121561051e578081fd5b813573ffffffffffffffffffffffffffffffffffffffff81168114610541578182fd5b9392505050565b6000602080838503121561055a578182fd5b823567ffffffffffffffff80821115610571578384fd5b818501915085601f830112610584578384fd5b8135818111156105965761059661076d565b8060051b6105a58582016106c0565b8281528581019085870183870188018b10156105bf578889fd5b8893505b848410156105fc578035868111156105d957898afd5b6105e78c8a838b0101610484565b845250600193909301929187019187016105c3565b509998505050505050505050565b6000806020838503121561061c578081fd5b823567ffffffffffffffff80821115610633578283fd5b818501915085601f830112610646578283fd5b813581811115610654578384fd5b866020828501011115610665578384fd5b60209290920196919550909350505050565b8183823760009101908152919050565b60008251815b818110156106a7576020818601810151858301520161068d565b818111156106b55782828501525b509190910192915050565b604051601f82017fffffffffffffffffffffffffffffffffffffffffffffffffffffffffffffffe016810167ffffffffffffffff811182821017156107075761070761076d565b604052919050565b60007fffffffffffffffffffffffffffffffffffffffffffffffffffffffffffffffff821415610766577f4e487b710000000000000000000000000000000000000000000000000000000081526011600452602481fd5b5060010190565b7f4e487b7100000000000000000000000000000000000000000000000000000000600052604160045260246000fdfea26469706673582212208b5328b16b910daba3cb88c15c5bc98d4ee43d8cbdf9d3b95324ed4f8e66b5ae64736f6c63430008040033",
  "linkReferences": {},
  "deployedLinkReferences": {}
}